:020000040800F2
:1000000000C40010A1020008C1030008D1B2010819
:10001000D1B20108D1B20108D1B20108C103000870
:10002000C1030008C1030008C1030008F103000870
:10003000C1030008C1030008C1030008D10400087F
:1000400001B90108C1030008C1030008C103000889
:10005000C1030008C1030008C1030008C103000870
:10006000C1030008C1030008C1030008912D000866
:10007000C12D0008F12D0008212E0008512E000886
:10008000812E0008B12E000811350008C1030008B8
:10009000C1030008C1030008C1030008C103000830
:1000A000C103000891560008C1030008C1560008AA
:1000B000C10300082157000841570008A14100086A
:1000C000C1410008F141000811420008C1030008C5
:1000D000C1030008E15C0008015D0008215D000823
:1000E000C1030008C1030008C1030008C1030008E0
:1000F00081570008C1030008B1570008E12E00082D
:10010000C1030008F136000861570008C103000868
:10011000C1030008C1030008C1030008C1030008AF
:10012000112F0008412F0008712F0008A12F00088F
:10013000D12F0008C1030008C1030008C103000853
:10014000C1030008C1030008C103000801510008F1
:10015000013000083130000861300008415D0008BE
:10016000C1030008C103000821A8010831A8010843
:10017000C103000801A80108C1030008C103000869
:10018000C1030008C1030008C1030008C10300083F
:10019000C1030008C1030008C1030008C10300082F
:0C01A000C1030008C1030008C1030008EF
:1001B0004B1C012B98BF70472DE9F003911C9B0845
:1001C000B1F80480B1F802900A8831F802CC80447A
:1001D000814402448444D9F80070D8F8006015685E
:1001E000DCF80040C9F80060C8F80070CCF8005096
:1001F0001460D9F80470D8F804605568DCF804403D
:10020000C9F80460C8F80470CCF804505460083190
:10021000013BD5D1BDE8F00370474B1C012B98BFC3
:1002200070472DE9F003911C9B08B1F80480B1F8E8
:1002300002900A8831F802CC00EB580800EB59090B
:1002400000EB520200EB5C0CD9F80070D8F80060AB
:100250001568DCF80040C9F80060C8F80070CCF8F8
:10026000005014600831013BDFD1BDE8F003704756
:10027000704700BFAFF30080AFF30080AFF30080A2
:10028000704700BFAFF30080AFF30080AFF3008092
:10029000FEE700BFAFF30080AFF30080AFF3008054
:1002A00072B6374880F30988364A374913684FF0E9
:1002B000404443F4700313600C600023E1EE103AF5
:1002C00006228B6082F31488BFF36F8F2F4B304A66
:1002D00093420BD2D9430A4422F0030204321A4457
:1002E0004FF0553143F8041B9342FBD1294B834215
:1002F0000CD2294A191D521A22F0030204321A4460
:100300004FF0553143F8041B9342FBD105F028FE12
:10031000224A234B9A420CD2D043184420F00300C7
:10032000204B0430184453F8041B42F8041B83424A
:10033000F9D11D4B1D4A93420AD2D9430A4422F0F7
:10034000030204321A44002143F8041B9342FBD1F8
:10035000174D184C05F00CFEAC4204D254F8043B87
:100360009847AC42FAD3144D144C28F051FEAC42DD
:1003700004D254F8043B9847AC42FAD3FFF788FF05
:1003800000C8001088ED00E034EF00E000C000106D
:1003900000C4001000C4001003C8001000020020B8
:1003A0007C20002038750B088020002010AB002036
:1003B000AC010008AC010008AC010008AC01000869
:1003C000FEE700BF00000000000000000000000089
:1003D00072B6FEE700000000000000000000000010
:1003E00000F0C6FA00DF00BFAFF30080AFF300807B
:1003F000064A536823F001035360EFF3098368331F
:1004000083F30988002383F31188704730EF00E0FD
:1004100008B5094B094A002199600720DA601021CC
:1004200000F0C6F80A20202100F0C2F80B2080213D
:10043000BDE8084000F0BCB800ED00E00003FA059C
:10044000202383F311881A4B5B6813F400631FD0D9
:10045000F1EE10FAEFF30983164A4FF08071D2687B
:1004600043F8082C43F84C1CA3F1680282F3098876
:1004700011498A69907F70B10868916882688A42E0
:1004800094BF002201227AB10C4A43F8502C7047E5
:1004900083F3118870470868916882688A4234BF84
:1004A00000220122002AEFD1054A43F8502C704760
:1004B00000ED00E030EF00E0B8350020E103000877
:1004C000E4030008AFF30080AFF30080AFF30080D7
:1004D00008B5202383F3118800F0C2F8002383F3CA
:1004E0001188BDE80840FFF7ABBF00BFAFF3008045
:1004F0002DE9F04F2DED108AC1F80CD0D0F80CD0BA
:10050000BDEC108ABDE8F08FAFF30080AFF3008040
:10051000002383F311882846A04700F081FB704731
:1005200020F0030202F1604202F5614270B4430917
:1005300000F00304D2F80053E400FF269B00A6401D
:1005400003F16043A14025EA060503F56143012458
:1005500000F01F0004FA00F02943C2F8001370BC39
:10056000C3F8800118607047AFF30080AFF30080DC
:10057000420930B4203200F01F050C4C20F0030378
:100580000121A94003F1604344F8221003F56143BF
:1005900000F00300D3F80013C000FF22824021EADC
:1005A0000202C3F8002330BC704700BF00E100E046
:1005B00020F0030303F1604303F56D4300F00300F3
:1005C00010B4C0009A69FF24844022EA04028140EA
:1005D000114399615DF8044B704700BF00000000B3
:1005E000024B034A9B699A61FEE700BFB8350020C1
:1005F000B05F0B08AFF30080AFF30080AFF3008073
:1006000000B583B0FFF704FF00F0CAF800F050F81F
:1006100001F026F901F074F940210C4800F0B8F916
:100620000B49012288610277002383F3118862B6A7
:1006300089690848886100934FF4B071064B0748F8
:1006400000F006FA03B05DF804FB00BF8020002034
:10065000B8350020600A0308E1050008483400208E
:1006600070B5114B9A69937F0BB1013B93770F4C97
:10067000E36822680133A242E36014D09668013E29
:10068000966086B91168D5682160D66000234C60F9
:1006900083F311881069A847202383F31188226807
:1006A0009368002BEED070BDB8350020A83500202F
:1006B000044B4FF0FF3100225B601B609960DA60F1
:1006C000704700BFA8350020AFF30080AFF3008073
:1006D00070B40C4E3468A5680361A942C26004D9A5
:1006E0002468491BA5688D42FAD363684360B4420D
:1006F000046060601860816002D0A368591AA1602C
:1007000070BC7047A8350020AFF30080AFF30080C5
:10071000074A0368934203D0996882680A449A6042
:1007200042681360016800234A60C360704700BFDD
:10073000A8350020000000000000000000000000BC
:1007400010B4202383F31188037F032B18D00D2BC3
:100750001AD083B14FF0FF34002381680D4A046240
:100760000377126893688B42FBD251684160026044
:1007700000235060086083F311885DF8044B7047D4
:10078000026A93680133936090E80C001A60026873
:100790005360DFE7B8350020AFF30080AFF300808F
:1007A000034B00225B601B605B611B619A607047BA
:1007B000B8350020AFF30080AFF30080AFF30080C6
:1007C00000228168084B10B4044602771B689A68BF
:1007D0008A42FBD25A686260236020465C601460E3
:1007E0005DF8044B704700BFB8350020AFF30080C0
:1007F000084B30B41A6899691468087701251420E9
:100800008877636015771C60104630BC9A61FFF7EB
:100810006FBE00BFB8350020AFF30080AFF300809B
:1008200030B54B1C87B012D00C4C0D4AA36905465D
:1008300001A8FFF74DFF2846FFF7DAFF049B13B12D
:1008400001A8FFF765FFA369186A07B030BD034C24
:10085000FFF7CEFFA369186A07B030BDB835002096
:1008600041070008AFF30080AFF30080AFF30080D2
:10087000144BF0B49E6984680546B06829628442CE
:100880004FF000020BD82A771B689A689442FBD974
:100890005A686A602B605D601560F0BC7047327703
:1008A0001A46126891688842FBD95468746001271F
:1008B0003260566026602F77314628469D61F0BC35
:1008C000FFF716BEB8350020AFF30080AFF300800D
:1008D0000E4A1068F0B40368946913600127142667
:1008E0000025A1685A60077703469061A6772577AF
:1008F00000E01B689A688A42FBD25A6862602360F3
:1009000021465C601460F0BCFFF7F2BDB8350020F2
:100910000D4A106870B403689469136001260025BD
:10092000A1685A60067703469061257700E01B684E
:100930009A688A42FBD85A686260236021465C60EC
:10094000146070BCFFF7D4BDB8350020AFF3008051
:10095000044B1A689B6992689B689A4200D870475A
:10096000FFF7D6BFB8350020AFF30080AFF30080AB
:10097000034B9B699B7F0BB1FFF7CABFFFF7A8BF73
:10098000B83500200000000000000000000000005A
:10099000F0B50E4CC16366694661002200F128057E
:1009A0004FF0020C4FF0140E00F124078160046137
:1009B00080F81CC0606180F81EE042778263426369
:1009C000826130614762C5628562F0BDB835002042
:1009D000884203D200F8012B8842FBD1704700BF48
:1009E0002DE9F04E6439164FDFF85890D7F814E02F
:1009F0000144C16000250B6494464FF0020B00F1E6
:100A000028024FF0140A00F12406089B4B64C1F839
:100A10006090C0F808C00761C0F814E0C0F83CC09E
:100A200080F81CB080F81EA0457778618563456327
:100A30008561CEF810004662C2628262BDE8F08E27
:100A4000B835002011050008AFF30080AFF3008037
:100A50002DE9F84605461F4640302B46FF2403F893
:100A6000014B9842FBD16B18984204D2552400F8F0
:100A7000014B9842FBD1202383F31188DFF868C033
:100A80001848DCF8146064392944E96000240F64D4
:100A900005F1280305F1240E089F4F644FF0020A68
:100AA0004FF014090866AA60C5F810C06E61EA63C9
:100AB00085F81CA085F81E906C77CCF81450AC63B8
:100AC0006C63AC61284635612146EB62AB62C5F8C8
:100AD00024E0FFF7CDFE234683F311882846BDE8C6
:100AE000F88600BF11050008B8350020AFF300807C
:100AF00010B5202383F31188084B9B69DC6B996840
:100B00008C4201D0814200D29860D863FFF720FF69
:100B1000002383F31188204610BD00BFB8350020A4
:100B200010B52023044683F311880021FFF7A0FEAF
:100B3000002383F31188204610BD00BFAFF300806F
:100B4000202383F31188437F43F00403437700237A
:100B500083F31188704700BFAFF30080AFF30080CC
:100B600008B50146202383F311880620FFF758FEBD
:100B7000002383F3118808BDAFF30080AFF300803A
:100B800008B5202383F31188054BD968411A02D098
:100B90000620FFF745FE002383F3118808BD00BF40
:100BA000A8350020AFF30080AFF30080AFF30080E2
:100BB00008B5202383F31188064B1A689B69926855
:100BC0009B689A4201D3FFF783FE002383F31188C9
:100BD00008BD00BFB8350020AFF30080AFF3008040
:100BE00038B50E4B9C692546206255F8240FA84263
:100BF00006D003686362FFF7E3FD606AA842F8D19C
:100C0000637F9B0704D1636922691A61226953617A
:100C10000E20BDE83840FFF7EBBD00BFB83500201F
:100C2000202383F31188FFF7DBBF00BFAFF3008001
:100C300010B52023044683F31188037F0E2B07D0C1
:100C4000064B426A9B6907201A606362FFF7D0FD7A
:100C5000206A002383F3118810BD00BFB83500203F
:100C6000202383F31188034A0023106983F311883A
:100C7000704700BFB8350020AFF30080AFF30080AD
:100C8000202383F31188044A00690023904208BF9F
:100C9000184683F311887047B83500200000000023
:100CA0004060006081607047AFF30080AFF3008068
:100CB00070B5856881600135002D0CDC04466FF04D
:100CC00001066068436863601C60FFF779FD0135C9
:100CD000012D0662F5D170BDAFF30080AFF3008047
:100CE00008B5202383F31188FFF7E2FFFFF730FEFA
:100CF000002383F3118808BDAFF30080AFF30080B9
:100D0000202383F311888368013B002B836004DB7D
:100D10000020002383F31188704710B5084CA269A6
:100D2000106241685160034610605A6003200A60F7
:100D3000FFF75EFDA369186A002383F3118810BDD5
:100D4000B8350020AFF30080AFF30080AFF3008030
:100D50008368013B002B836001DB0020704710B5E6
:100D6000074CA269106241685160034610605A60E6
:100D700003200A60FFF73CFDA369186A10BD00BF9D
:100D8000B8350020AFF30080AFF30080AFF30080F0
:100D900003468068421E002A9A6001DB00207047EB
:100DA00010B461B1094A926913625C68032082E859
:100DB00018005A6022605DF8044BFFF731BD98605F
:100DC0005DF8044B4FF0FF30704700BFB83500208E
:100DD00008B5202383F31188FFF7DAFF002383F39C
:100DE000118808BDAFF30080AFF30080AFF300803F
:100DF00008B5202383F3118883680133002B8360B7
:100E000003DD002383F3118808BD034600680268F0
:100E10001A6000215360FFF72BFD002383F3118834
:100E200008BD00BFAFF30080AFF30080AFF30080D8
:100E300083680133002B836000DD704703681A6804
:100E400002600021506018461962FFF7B9BC00BF6C
:100E500070B50C1E12DD0546002601E0013C0DD0E8
:100E6000AB680133002BAB60F8DC286803682B60AB
:100E70005D60FFF7A5FC013C0662F1D170BD00BFCB
:100E800010B5024682B0202383F3118883680133B2
:100E9000002B83601DDD8B68013B002B8B6007DB23
:100EA000FFF756FD0020002383F3118802B010BD28
:100EB0000D4A4B689469032084E80A004C601C606A
:100EC0002162FFF795FC206A002383F3118802B0AA
:100ED00010BD00680191036813605A60FFF770FC51
:100EE000002303620199D6E7B83500200000000016
:100EF0000023406000608360704700BFAFF3008054
:100F0000254B826870B59C69002A3FD005469368DE
:100F1000A06898421DD9137F9060002B2DD0042B20
:100F200017D192E80A001960166A11684B603346BF
:100F300002E09968814202D31B689E42F9D1596848
:100F4000516013605A600A60B268A0689368834277
:100F5000E1D32B4603E09968A268914202D31B6853
:100F60009D42F8D15A68626023605C60146025621B
:100F70000420BDE87040FFF73BBC92E80A0019600E
:100F8000116810464B60FFF71BFCE2E7A36BC360E0
:100F90008460A06370BD00BFB8350020AFF300804F
:100FA00008B5202383F31188FFF7AAFF002383F3FA
:100FB000118808BDAFF30080AFF30080AFF300806D
:100FC0000246202383F31188836800201BB100238D
:100FD00083F311887047054B9B699360996BD160CF
:100FE00001209A63002383F311887047B8350020ED
:100FF000826803460AB100207047044A9269826001
:10100000916BC16001209363704700BFB835002029
:10101000174A38B59069202383F31188846B2568BB
:10102000E3688363A5421CD0C16B4BB11A689A4236
:1010300003D09268914238BF1146DB68002BF5D18E
:101040002B68AA6B8160236028465C600021A56044
:10105000E260AC63FFF70CFC002383F311882046A9
:1010600038BD0023A360002383F31188204638BDD8
:10107000B8350020AFF30080AFF30080AFF30080FD
:1010800038B5124B9869846B2568E3688363A54281
:1010900018D0C16B4BB11A689A4203D09268914242
:1010A00038BF1146DB68002BF5D12B68AA6B816035
:1010B000236028465C60A560E260AC63FFF780FBBC
:1010C000204638BD0023A360204638BDB835002037
:1010D000134A70B52023946983F31188A36BD3B1AD
:1010E00000260AE01168956B19604B609A60DD601C
:1010F0009363FFF765FBA36B4BB11A68D968A163D3
:101100009A421046EED19E60A36B002BF5D1E36BA3
:10111000A360FFF71DFC002383F3118870BD00BF9F
:10112000B8350020000000000000000000000000B2
:1011300030B4202383F31188064C0368A5690B6043
:101140000024016023464D608A60CC6083F31188DF
:1011500030BC7047B8350020AFF30080AFF300809B
:10116000202383F31188024602E0994207D01A46F1
:1011700013688342F9D1002383F3118870470B6809
:101180001360002383F31188704700BFAFF3008022
:10119000202383F31188054B9B695A6B22EA0001D7
:1011A0005963002383F3118810407047B83500203D
:1011B000202383F31188044B9A69536B18435063BF
:1011C000002383F311887047B8350020AFF3008007
:1011D0000246202383F311880023C068D36083F381
:1011E00011887047AFF30080AFF30080AFF3008049
:1011F00008B5436B027F1943082A41630BD0092AC3
:1012000000D008BD036A19408B42FAD1FFF7D8FA23
:101210000023036208BD036A1942F7D108BD00BF6D
:1012200070B50468A04205460E4608D0201D0BC8C4
:101230003343E360FFF7DCFF2468A542F6D170BDBD
:1012400008B5202383F31188FFF7D2FFFFF780FB57
:10125000002383F3118808BDAFF30080AFF3008053
:1012600008B5202383F31188FFF7DAFFFFF770FB3F
:10127000002383F3118808BDAFF30080AFF3008033
:1012800003460022C068DA60704700BFAFF30080F9
:10129000F8B50D46A9B107460024012606FA04F365
:1012A0002B4204D1013406FA04F32B42FAD0204633
:1012B00025EA030557F8243098470134002DEDD175
:1012C000F8BDF8BDAFF30080AFF30080AFF300804E
:1012D00038B50D4B9D69202383F311886B6B10EAA1
:1012E000030207D1044628620820FFF781FA6B6BDE
:1012F00004EA03025042104023EA00036B63002318
:1013000083F3118838BD00BFB8350020AFF30080EB
:1013100038B50C4B9D69202383F311886B6B10EA61
:10132000030406D1044628620820FFF761FA6B6BBC
:101330001C4023EA04036B63002383F311882046D7
:1013400038BD00BFB8350020AFF30080AFF3008098
:1013500038B50C4B04469D69202383F311886B6BD1
:1013600000EA0302824204D028620920FFF740FA13
:101370006B6B23EA04036B63002383F3118820461D
:1013800038BD00BFB8350020AFF30080AFF3008058
:10139000134B70B59E69202383F31188726B10EA9A
:1013A00002040FD121B90B4683F31188084670BDA2
:1013B000306205460820FFF733FA00280BDB726B1A
:1013C00005EA02046042204022EA00027263002320
:1013D00083F3118870BD234683F31188204670BDC6
:1013E000B8350020AFF30080AFF30080AFF300808A
:1013F000134B70B59E69202383F31188726B10EA3A
:1014000002040FD121B90B4683F31188084670BD41
:10141000306205460820FFF703FA00280ADB726BEA
:1014200005EA020422EA04027263002383F31188AE
:10143000204670BD234683F31188204670BD00BF4F
:10144000B8350020AFF30080AFF30080AFF3008029
:1014500038B5124B04469D69202383F311886B6BCA
:101460001840A0420CD021B90B4683F311880846DE
:1014700038BD2C620920FFF7D3F9002808DB6B6B1D
:1014800023EA04036B63002383F31188204638BDED
:10149000002383F31188184638BD00BFB8350020FB
:1014A0000E4B70B59C69202383F3118800F1280549
:1014B000067F2562C36A63600C2E21632560C462C7
:1014C0001C6007D00A20FFF793F9206A002383F3FA
:1014D000118870BDFFF774F9F4E700BFB83500203C
:1014E00010B5202383F311880B4CA269134653F8DF
:1014F000280F984208D0016891620B224B600023AC
:10150000027783F3118810BD0C20FFF771F9A269EF
:10151000906A02F12803EEE7B8350020AFF30080AF
:1015200008B5202383F31188FFF7A2F9002383F382
:10153000118808BD0000000000000000000000004D
:1015400071B1094B9B6910B418624468024683E884
:1015500014000D20536023605DF8044BFFF760B961
:101560004FF0FF30704700BFB8350020AFF3008068
:1015700030B4029C046200250A4485600261406028
:10158000006041618161C160C36130BC704700BFD0
:1015900038B504460068E36863610022A042A26097
:1015A000A3610AD06FF00105036823605C60FFF758
:1015B00007F905622068A042F6D138BDAFF300807C
:1015C000034640699A69904210B59A681BD001326F
:1015D000441C9A605C61017059691A6991420BD28E
:1015E000186898420DD002681A605360FFF7E8F857
:1015F00000230362184610BD1868DA685A619842E1
:10160000F1D1002010BD002AE1D06FF0030010BD21
:1016100070B520230E46044683F31188C3692BB1AD
:10162000984703E0FFF78CFF002815DBA5682046EC
:101630003146002DF6D0A2692169531C8B4205F179
:10164000FF35A361A56028BFE368107828BFA361B8
:10165000002383F3118870BD2B4683F3118870BD7E
:101660002DE9F0471E46044689469246D0F81C8074
:10167000202383F311880027B8F1000F05D02046FE
:10168000C04702E0FFF75CFFE0B9A568204631469D
:10169000002DF7D0A369013D5A1CA261A5601B78FB
:1016A00009F8013B2369A2699A4224BFE368A36158
:1016B000002383F311880137BA4506D0202383F332
:1016C0001188D9E72B4683F311883846BDE8F087A7
:1016D00030B4029C04628D18056140600060826035
:1016E00041618161C160C36130BC7047AFF300806C
:1016F00038B5C26803690446006862619B1AA0425B
:10170000A261A3600AD06FF00105036823605C60EA
:10171000FFF756F805622068A042F6D138BD00BF39
:10172000F8B504460F461646202383F3118803E0DC
:10173000FFF706FF002819DBA56820463146002D7B
:10174000F6D06369013D5A1C6261A5601F70236970
:1017500062699A4224BFE3686361E3690BB1204682
:101760009847002383F311881846F8BD2B4683F36E
:101770001188F8BDAFF30080AFF30080AFF30080B5
:1017800038B5826943699342836818D00569511C52
:10179000013383608161A94214780DD202688242CC
:1017A00008D01168016003464B601046FFF708F847
:1017B00000230362204638BDC3688361EEE7002B37
:1017C000E4D06FF0020038BDAFF30080AFF30080CB
:1017D0002DE9F84F9A4604460E461746D0F81C905D
:1017E000202383F311884FF00008A56806F1010B50
:1017F0006A1E20460DB36369A2605A1C626132788A
:101800001A70236962699A4224BFE3686361B9F17F
:10181000000F00D0C847002383F31188013F08F16F
:10182000010813D0202383F31188A5685E466A1E41
:1018300006F1010B2046002DDDD120465146FFF771
:101840007FFE0028D1D02B4683F311884046BDE8A7
:10185000F88F00BF00000000000000000000000042
:10186000044A054B054922F0070223F0070381E8EB
:101870000C007047C7E7001000B00020C020002017
:1018800010B4202383F31188094C22686168C31DBA
:1018900023F00703891A8B429DBF9B1823601046D3
:1018A0000020002383F311885DF8044B704700BFCC
:1018B000C0200020AFF30080AFF30080AFF30080C2
:1018C00010B4084C22686168073020F00703891AB9
:1018D0008B429DBF9B182360104600205DF8044B8F
:1018E000704700BFC0200020AFF30080AFF300803E
:1018F000024B58681B68C01A704700BFC020002008
:10190000044B054A1A6003F1100000229A60DA6065
:10191000FFF7EEBAC820002081180008AFF300805E
:101920000023083A81600360C36010304A600B6096
:10193000FFF7DEBAAFF30080AFF30080AFF30080B3
:10194000F8B51E4E002818BF0646073106F11000F4
:1019500021F0070506F10804FFF722FB03E04368C6
:101960009D4211D9044620680028F8D1FFF750FBAA
:1019700033680BB305F108009847E8B1066045608D
:1019800000F108042046F8BD05F108029A4208D982
:1019900003682360044644F8086BFFF739FB2046D0
:1019A000F8BD6FF00701491B87180B44016881508F
:1019B0007B6027604560EDE70024E3E7C820002056
:1019C00070B50646A0F1080450F8080C00F10805AF
:1019D0001030FFF7E5FA2B46AB4204D0A34202D306
:1019E0001B68AB42FAD11A681AB1944201D313466C
:1019F000F2E756F8041C46F8082C1C6001F10802B6
:101A000056F8085CA018A84209D0596801F10802EC
:101A10001A44944211D0BDE87040FFF7F9BA40680B
:101A2000A25846F8082C0A18083246F8042C5968BF
:101A300001F108021A449442EDD116E905000A4466
:101A4000083218605A60BDE87040FFF7E1BA00BF85
:101A500038B50E4C002818BF044604F110000D469E
:101A6000FFF79EFAA3686BB10022144658681B6802
:101A700001340244002BF9D105B12A60FFF7C8FAFE
:101A8000204638BD1A461C46F6E700BFC820002095
:101A900008B501F095FB0A4802F0AAF800F048F8F2
:101AA00000F006F900F0DCF900F07AFC00F0A8FB89
:101AB00000F0F6FC00F0F4FDBDE8084004F070BA58
:101AC000D00B0308AFF30080AFF30080AFF30080CA
:101AD000084B81425B6806D9834208D38B422CBFF6
:101AE0000020012070478342F8D301207047002076
:101AF000704700BF001000E0AFF30080AFF300803C
:101B000008494A68104482424B6802D29A4202D97C
:101B100070479A42F7D9984294BF00230123002BC3
:101B2000F1D17047001000E000000000000000004C
:101B300001F00EBCAFF30080AFF30080AFF3008084
:101B400000230122027043608360C360036143612C
:101B50001830FFF7CDB900BFAFF30080AFF30080BE
:101B600010B52023044683F31188416001F010FC76
:101B700002232370002383F3118810BDAFF300808C
:101B800010B52023044683F3118801F039FC0123AA
:101B90002370002383F3118810BD00BFAFF30080D2
:101BA00038B51D46202383F3118803230370826018
:101BB000C560016101F044FC002383F3118838BD46
:101BC00030B4032505708260C360016130BC01F050
:101BD00037BC00BFAFF30080AFF30080AFF30080ED
:101BE00010B52023044683F311880378022B0CD010
:101BF00001F076FC6069002302222361227020B18B
:101C000063616FF00101FEF733FE002383F3118857
:101C100010BD00BFAFF30080AFF30080AFF30080D2
:101C20000378022B10B5044610D001F059FC63690B
:101C3000002202212261217043B16FF00101626133
:101C400019621846BDE81040FEF7BABD10BD00BFCE
:101C500070B51E460446202383F311880323094DE3
:101C600082600161C660037001F0EAFBAB696361E9
:101C70000220FEF7BDFDAA690023106A83F31188D4
:101C800070BD00BFB8350020AFF30080AFF3008017
:101C90001830FFF785B900BFAFF30080AFF30080C5
:101CA000FFF7B6B9000000000000000000000000CF
:101CB00002F0C6BAAFF30080AFF30080AFF300804C
:101CC00001220023027043600C30FFF711B900BFFE
:101CD00010B52023044683F31188416002F0D8FA3E
:101CE00002232370002383F3118810BDAFF300801B
:101CF00010B52023044683F3118802F0C1FB0123B1
:101D00002370002383F3118810BD00BFAFF3008060
:101D100080687047AFF30080AFF30080AFF30080BE
:101D20002DE9F04184B0984604460A9F0B9E20237B
:101D300083F311884FF0030E0C9B0293002500974C
:101D400001964346856080F800E002F041FC431CA8
:101D50000CBF052302232370002383F3118804B0F2
:101D6000BDE8F081AFF30080AFF30080AFF30080F7
:101D7000F0B583B09E460446089F202383F3118864
:101D800000260425009773468660057002F0B0FBBC
:101D9000431C0CBF052302232370002383F3118807
:101DA00003B0F0BDAFF30080AFF30080AFF300806D
:101DB0000C30FFF7F5B800BFAFF30080AFF3008041
:101DC000FFF726B90000000000000000000000003E
:101DD000C3689B0F0CD0012B08D18268C38802F026
:101DE0003F0043EA00400130800270470020704706
:101DF000416882688B0FC2F3090043EA8000C1F397
:101E0000C2310231C2F303420130093A88409040A6
:101E1000704700BF0000000000000000000000004C
:101E2000036881681B69426823FA01F0104070471B
:101E300030B419C823EA010204F110050B4003FA7B
:101E400004F102FA05F30B43836130BC704700BF15
:101E50000A460BC8994001F0B3BF00BF0000000064
:101E600003F0D6BCAFF30080AFF30080AFF3008087
:101E70000122002302704360704700BFAFF300806F
:101E800010B52023044683F311888B8803814160B9
:101E900003F0F6FC02232370002383F3118810BDA6
:101EA00010B52023044683F3118803F0C1FD0123FC
:101EB0002370002383F3118810BD00BFAFF30080AF
:101EC000202383F311884B1E026901819BB2D362E8
:101ED000002383F311887047AFF30080AFF30080D5
:101EE00008B5202383F3118803F002FE002383F357
:101EF000118808BDAFF30080AFF30080AFF300801E
:101F000008B5202383F3118803F00AFE002383F32E
:101F1000118808BD00000000000000000000000063
:101F20000379052B01D001207047836A4B604FF481
:101F300000730B6000207047AFF30080AFF30080A8
:101F40002DE9F041032382B00371044601F048FCFF
:101F500000210A46204601F07BFC204601AB082107
:101F60004FF4D57201F0A4FC88B9019B0122C3F3A0
:101F700003239342226300F0A680204601F048FC30
:101F8000022323710125284602B0BDE8F08100211B
:101F900021630A46204601F05BFC226B524B5349F9
:101FA00002F00F02012A0CBF98468846642603E01F
:101FB000013EE2D0FEF7D4FD3721002201AB2046DE
:101FC00001F076FC4A4D2921424601AB0028D4D1CC
:101FD000019F3D402046002DCFD101F049FC002853
:101FE000CBD1019B002B4FF00A00E1DA5B0003D557
:101FF000236B43F01003236320460221002204F1E7
:10200000080301F0FDFC0028B7D102460321204659
:1020100004F1380301F04CFC0028AED104F118069D
:10202000334620460921A26B01F0EAFC0028A4D126
:10203000204601F0E5FB20460721A26B01AB01F031
:1020400037FC002899D1204610214FF4007201ABD3
:1020500001F02EFC054600288FD1019A244B134035
:10206000002B8AD1236B03F00F03012B21D82046CC
:10207000012101F0D5FB20463721A26B01AB01F015
:1020800017FC00287FF479AF019A194B1340002BFD
:102090007FF473AF01AB20460621022201F008FC59
:1020A00000287FF46AAF019A114B1340002B7FF494
:1020B00064AF3046FFF78CFEA06200283FF45DAFAE
:1020C000052323715FE702463721204601AB01F06B
:1020D000EFFB00287FF451AF019A054B1340002B12
:1020E0007FF44BAF59E700BF000010C00000108024
:1020F00008E0FFFDAFF30080AFF30080AFF3008096
:1021000070B54D1E866A1D44B542044605D9436B21
:1021100043F080034363012070BD0625057101F083
:102120004FFD0523237170BDAFF30080AFF3008036
:1021300070B54D1E866A1D44B542044605D9436BF1
:1021400043F080034363012070BD0725057101F052
:102150003FFD0523237170BDAFF30080AFF3008016
:1021600038B50579052D01D0012038BD0446082376
:10217000037101F035FD257138BD00BFAFF300805C
:1021800010B5044682B001AB20460D21A26B01F0D0
:102190008FFB0A4B78B9019A1340C2F343214BB924
:1021A000042908D04FF0010004D3072902D8FEF714
:1021B000D7FCE8E7012002B010BD00BF08E0FFFD3A
:1021C00038B5202383F311880379022B0FD0042321
:1021D00003710446002383F31188FFF7D1FF0546FE
:1021E000204601F015FB02232371284638BD002349
:1021F00083F311881D46284638BD00BFAFF3008029
:1022000001F08EBAAFF30080AFF30080AFF300802F
:10221000044B03600122002302714363C3628362A3
:10222000704700BF800A0308AFF30080AFF300805F
:1022300010B52023044683F31188C16201F080FAAF
:1022400002232371002383F3118810BDAFF30080B4
:1022500010B52023044683F3118801F0A1FA01236D
:102260002371002383F3118810BD00BFAFF30080FA
:102270000246202383F311880023406B536383F3CA
:1022800011887047AFF30080AFF30080AFF3008098
:1022900070B504460720236B2071DB060D4682B023
:1022A00058BF4D022046164658BF5602FFF768FF3A
:1022B0002A4601AB2046202101F0FAFA18B9019A0A
:1022C000144B13402BB1052323710125284602B07E
:1022D00070BD32462046212101AB01F0E9FA002809
:1022E000F1D1019B0B4A1A40002AECD101AB2046E8
:1022F000262101F0DDFA05460028E4D1019A054BBC
:102300001340002BDFD12046FFF73AFF052323714E
:10231000DCE700BF08E0FFFD000000000000000057
:102320000C30FFF79DB900BFAFF30080AFF3008022
:102330000C304FF0FF33FFF793B900BFAFF30080CD
:102340003030FFF745BA00BFAFF30080AFF3008035
:1023500030304FF0FF33FFF73BBA00BFAFF30080E0
:102360000C30FFF755B900BFAFF30080AFF300802A
:102370000C304FF0FF31FFF74BB900BFAFF30080D7
:102380003030FFF7CDB900BFAFF30080AFF300806E
:1023900030304FF0FF32FFF7C3B900BFAFF300801A
:1023A00003F0DEBCAFF30080AFF30080AFF300803A
:1023B00070B50E4B044682B040F8043B01260094F1
:1023C0000B461546606004F1540104F10C002672BE
:1023D0002022FFF7CDF800942B4604F1300004F1E1
:1023E00074012022FFF774F902B070BDA00A03083F
:1023F00010B52023044683F3118803F0F1FC022377
:102400002372002383F3118810BD00BFAFF3008057
:1024100010B52023044683F3118803F061FD0123E6
:10242000237204F13000FFF763F904F10C00FFF7A9
:10243000AFF8FEF78DFA002383F3118810BD00BFBB
:1024400038B5436904460D463BB1294604F10C00FA
:10245000FFF7B6F800280BDB38BD04300421FEF787
:10246000DFFE294604F10C00FFF7AAF80028F3DA92
:10247000201D8021BDE83840FEF7D2BEAFF30080BA
:1024800038B504463030FFF77BF9051E01DB2846DE
:1024900038BD201D0821FEF7C3FE284638BD00BF09
:1024A00002F05EBFAFF30080AFF30080AFF30080B7
:1024B000002301220270436083600C30FEF718BDD8
:1024C00010B52023044683F31188416002F080FF99
:1024D00002232370002383F3118810BDAFF3008023
:1024E00010B52023044683F3118803F011F8204629
:1024F00002F0D6FF01232370002383F3118810BD5F
:1025000008B5202383F3118802F0FAFF002383F338
:10251000118808BDAFF30080AFF30080AFF30080F7
:1025200008B5202383F3118802F0F2FF002383F320
:10253000118808BDAFF30080AFF30080AFF30080D7
:1025400008B5202383F311880323037002F0E8FF0A
:10255000002383F3118808BDAFF30080AFF3008040
:1025600070B51E46202383F311880325334605707A
:1025700002F0F6FF002383F3118870BDAFF30080F3
:1025800010B5202383F311880323037003F008F8A8
:10259000002383F3118810BDAFF30080AFF30080F8
:1025A00010B5202383F311880323037003F018F878
:1025B000002383F3118810BDAFF30080AFF30080D8
:1025C00010B52023044683F311880323037002F01F
:1025D000A7FF054B9B69A3600220FEF709F90023C2
:1025E00083F3118810BD00BFB8350020AFF3008021
:1025F00070B51E460446202383F311880325334615
:10260000057002F0ADFF054B9B69A3600220FEF749
:10261000EFF8002383F3118870BD00BFB8350020A8
:1026200010B52023044683F311880323037002F0BE
:10263000B7FF054B9B69A3600220FEF7D9F8002382
:1026400083F3118810BD00BFB8350020AFF30080C0
:1026500010B52023044683F311880323037002F08E
:10266000BFFF054B9B69A3600220FEF7C1F8002362
:1026700083F3118810BD00BFB8350020AFF3008090
:102680000C30FEF78DBC00BFAFF30080AFF30080CD
:10269000FEF7BEBC000000000000000000000000CB
:1026A00002F0FEB9AFF30080AFF30080AFF300801B
:1026B0000023012202704360C36183620362C3622C
:1026C0004362036303814381704700BFAFF300801F
:1026D00038B50446202383F3118800254160C56086
:1026E00005614561856102F003FA02222B462270E2
:1026F00083F3118838BD00BFAFF30080AFF30080D3
:1027000010B52023044683F3118802F061FA0123F7
:102710002370002383F3118810BD00BFAFF3008046
:1027200070B50646506914460D4618B100211422B2
:102730002DF066FBA06918B1002114222DF060FB7A
:1027400006EB85033046DC602946BDE8704002F0A8
:10275000DFBA00BFAFF30080AFF30080AFF30080BB
:1027600010B441890489002224F0010421F0010100
:10277000048102614181426182615DF8044B02F093
:1027800077BB00BFAFF30080AFF30080AFF30080F2
:1027900030B400EB81040025E468A469E260636062
:1027A0002570A56030BC02F09BBB00BFAFF300807A
:1027B00030B400EB81040025E4686469E260636082
:1027C0002570A56030BC02F00BBC00BFAFF30080E9
:1027D00070B400EB81040126E468A4690025E2607E
:1027E00063602670A56070BC02F07ABBAFF3008016
:1027F00070B400EB81040126E46864690025E2609E
:1028000063602670A56070BC02F0EABBAFF3008085
:1028100070B5458945FA01F313F0010401D0012098
:1028200070BD01238B401D43458102F0E9FC204629
:1028300070BD00BFAFF30080AFF30080AFF3008046
:1028400070B5058945FA01F313F0010401D00120A8
:1028500070BD01238B401D43058102F0E1FC204641
:1028600070BD00BFAFF30080AFF30080AFF3008016
:1028700043890B4110B513F0010401D0012010BDB4
:1028800002F0E6FC204610BDAFF30080AFF30080FD
:1028900003890B4110B513F0010401D0012010BDD4
:1028A00002F0E6FC204610BDAFF30080AFF30080DD
:1028B000002202210170A0F84C2080F84E2080F800
:1028C0004F2002814281C26002614261826180F8D0
:1028D000342002F0A5B900BFAFF30080AFF3008051
:1028E000F8B50023044680F8343000F1440202F0C9
:1028F000E7FA63689B686BB32046984750B3E56B73
:1029000094F8443094F84B1094F84A2042EA01229B
:10291000AA423CBFE263154613F0800FE36840F023
:102920008A80002D6ED15B69052284F83420204610
:102930001D70DD605D609D60294602F051FB202323
:1029400083F3118820462946FFF77AFF2B4683F34D
:102950001188F8BD94F8443013F0600711D0204678
:10296000002102F085FC2046002102F071FC636822
:102970001B6813B1204605219847062384F834309C
:10298000F8BD94F8455003F07F0242EA0526B6F5FB
:10299000407F00F0038117DDB6F5C06F00F0E580E1
:1029A0007ADDB6F5106F00F08A8040F6024296425A
:1029B00000F00781B6F5006FD1D104F14F02012577
:1029C0002764A263E5639DE7022E00F0B78040F321
:1029D000AC80B6F5807F00F09880B6F5817FBED1DF
:1029E00094F84620002ABAD194F8482012F00F013A
:1029F00060D01206204600F10C8102F049FC94F8E8
:102A0000443057E09B69A26B0026042184F83410FF
:102A10002046DA605D601E709E60314602F060FA0A
:102A2000202383F3118820463146FFF7F1FE334619
:102A300083F31188F8BDC5B15B69A26B0026012143
:102A400084F834102046DA605D601E709E60314666
:102A500002F0C6FA202383F3118820463146FFF79F
:102A6000EFFE334683F31188F8BD9B69032284F897
:102A7000342020461D70DD605D609D60294602F0B7
:102A80002FFA202383F3118820462946FFF7C0FE42
:102A90002B4683F31188F8BD40F20232964221D0D2
:102AA000B6F5A06F7FF45BAFB4F84420B2F5A06F29
:102AB00000F09D800025A563E563256422E794F876
:102AC000462084F84F20002A40F0828003222270A2
:102AD00062681268002AEDD020460221904794F8DF
:102AE0004430E7E794F84620002A7FF438AF94F8A2
:102AF000482012F00F01DDD01306204600F18E8031
:102B000002F0A6FB94F84430D4E794F84620012A5A
:102B10007FF425AFB4F84C20A76322F00202E763EC
:102B200027643D46A4F84C20ECE6002E46D104F183
:102B30004C0202252664A263E563E3E694F848109C
:102B400011F0800F204601F00F0144D102F098F9F6
:102B5000012844D002287FF402AF334BA363E06323
:102B60002764054694F84430CCE6626894F849003E
:102B700094F84830556894F8471094F8462043EA92
:102B800000232046A84700283FF4E9AE43680568C3
:102B9000E563A363276494F84430B3E694F84620D1
:102BA000012A7FF4DCAEB4F84C20A76342F00202A5
:102BB000E76327643D46A4F84C20A3E6012E7FF48A
:102BC000CEAE1A4AA26302250022E563226499E68A
:102BD000042222707CE702F063F90128BAD1144B79
:102BE000A363E6632764354694F844308AE694F894
:102BF000463084F84E30204602F07AF863681B684D
:102C000013B1204601219847032294F844302270E2
:102C100050E702F04DFB94F844304BE702F028FBFC
:102C200094F8443046E700BFC80A0308C00A030806
:102C3000C40A0308AFF30080AFF30080AFF3008055
:102C400038B590F83430022B044643D0052B3AD0E7
:102C5000012B10D0002102F00BFB2046002102F0D6
:102C6000F7FA63681B6813B12046052198470623CD
:102C700084F8343038BD90F84B3090F84A20C16B5E
:102C800042EA03228A42C26805D9158AB1FBF5F3EC
:102C900005FB131505B393690025032284F834203E
:102CA00029461D70DD605D609D60204602F018F9C8
:102CB000202383F3118820462946FFF7A9FD2B46E0
:102CC00083F3118838BD036C03B19847002384F85F
:102CD000343038BDC268DEE7536929461D70DD60B7
:102CE0005D609D6002F07CF9202383F3118820460B
:102CF0002946FFF7A5FD2B4683F31188022384F8AC
:102D0000343038BDAFF30080AFF30080AFF3008004
:102D100038B590F83430032B04462BD0042B11D057
:102D20002046002102F0A4FA2046002102F090FA89
:102D300063681B6813B1204605219847062384F871
:102D4000343038BDC3685B690025052280F8342023
:102D500029461D70DD605D609D6002F041F9202311
:102D600083F3118820462946FFF76AFD2B4683F33B
:102D7000118838BDC3689B699B68002BD0D1036C58
:102D800003B19847002384F8343038BD00000000B8
:102D900008B5074B074A196801F03D0199601368AF
:102DA0000BB150689847BDE80840FDF749BB00BF2C
:102DB00000600240E8200020AFF30080AFF3008005
:102DC000084B094819688268890901F03D0110B56E
:102DD0008C019C600AB1C0689047BDE81040FDF7C7
:102DE0002FBB00BF00600240E8200020AFF300804E
:102DF000084B094819680269090C01F03D0110B53A
:102E00000C049C600AB140699047BDE81040FDF792
:102E100017BB00BF00600240E8200020AFF3008035
:102E2000084B094819688269890D01F03D0110B508
:102E30008C059C600AB1C0699047BDE81040FDF761
:102E4000FFBA00BF00600240E8200020AFF300801E
:102E500008B5074B07485968026A01F03D01D9607F
:102E60000AB1406A9047BDE80840FDF7E9BA00BFE3
:102E700000600240E8200020AFF30080AFF3008044
:102E8000084B09485968826A890901F03D0110B56B
:102E90008C01DC600AB1C06A9047BDE81040FDF7C4
:102EA000CFBA00BF00600240E8200020AFF30080EE
:102EB000084B09485968026B090C01F03D0110B537
:102EC0000C04DC600AB1406B9047BDE81040FDF790
:102ED000B7BA00BF00600240E8200020AFF30080D6
:102EE000084B09485968826B890D01F03D0110B506
:102EF0008C05DC600AB1C06B9047BDE81040FDF75F
:102F00009FBA00BF00600240E8200020AFF30080BD
:102F100008B5074B07481968026C01F03D0199603C
:102F20000AB1406C9047BDE80840FDF789BA00BF80
:102F300000640240E8200020AFF30080AFF300807F
:102F4000084B09481968826C890901F03D0110B5E8
:102F50008C019C600AB1C06C9047BDE81040FDF741
:102F60006FBA00BF00640240E8200020AFF3008089
:102F7000084B09481968026D090C01F03D0110B5B4
:102F80000C049C600AB1406D9047BDE81040FDF70D
:102F900057BA00BF00640240E8200020AFF3008071
:102FA000084B09481968826D890D01F03D0110B583
:102FB0008C059C600AB1C06D9047BDE81040FDF7DC
:102FC0003FBA00BF00640240E8200020AFF3008059
:102FD00008B5074B07485968026E01F03D01D960FA
:102FE0000AB1406E9047BDE80840FDF729BA00BF1E
:102FF00000640240E8200020AFF30080AFF30080BF
:10300000084B09485968826E890901F03D0110B5E5
:103010008C01DC600AB1C06E9047BDE81040FDF73E
:103020000FBA00BF00640240E8200020AFF3008028
:10303000084B09485968026F090C01F03D0110B5B1
:103040000C04DC600AB1406F9047BDE81040FDF70A
:10305000F7B900BF00640240E8200020AFF3008011
:10306000084B09485968826F890D01F03D0110B580
:103070008C05DC600AB1C06F9047BDE81040FDF7D9
:10308000DFB900BF00640240E8200020AFF30080F9
:1030900030B40D4C0D4D0022C4F88020134611466B
:1030A000A858016044F833100133102B02F10C02D0
:1030B000F6D10749074A4FF0FF338B6030BCCB6035
:1030C0009360D360704700BFE8200020D00A030857
:1030D0000060024000640240AFF30080AFF3008064
:1030E000F8B5204E477AD6F88050012404FA07FE3E
:1030F0001EEA050F31D14EEA050506EBC70415F0AF
:10310000FF0FC6F8805046F83720636004D0164C95
:10311000236B43F40013236315F47F4F17D1056825
:103120002B6823F01F032B602B6813F00104FBD1E5
:10313000077A46683D23BB40212733602C606F61CE
:103140006AB1807A0901FDF7EBF92046F8BD064C1B
:10315000236B43F480032363E1E72046F8BD104668
:10316000F8BD00BFE820002000380240AFF3008027
:1031700010B50446807AFDF7FBF90D49607AD1F865
:1031800080200123834022EA030313F0FF0FC1F8DC
:10319000803004D107490A6B22F400120A6313F449
:1031A0007F4F04D1034A136B23F48003136310BDD4
:1031B000E82000200038024000000000000000006D
:1031C000204B21491A694FF0FF300022F0B51861F9
:1031D0001A615C6958615A611C6A1C4FDFF878E01B
:1031E0001B4E1C4D64F080541C621A620724D3F8F5
:1031F00024C058625A62C1F804E08A600C60F96821
:1032000041F08071F960316841F001013160196C61
:1032100041F080511964296841F480712960196F67
:1032200001F44071B1F5007F03D04FF4803119678C
:103230001A67084A536823F400735360BDE8F040EE
:10324000FFF726BF0038024010E000E0F0ED00E09C
:10325000001000E0007000403F900200AFF30080DB
:103260003249334B4FF080504FF4404208641A60AB
:103270000B6843F001030B600A682C4B9007FBD5E9
:103280009A6822F003029A609A689A6019468B68DD
:10329000264A13F00C03FAD1116801F0F90111600C
:1032A0009360136843F48033136011681F4B8903E4
:1032B000FBD55A6F42F001025A675A6F1B499207B9
:1032C000FBD51C4B4B600B68194A43F080730B60B5
:1032D00053685B04FCD515490A68144B9001FBD573
:1032E000154AC3F884201A6842F080621A601A46B0
:1032F00011680E4B0901FBD5104A1149996040F243
:10330000057111609A6842F002029A601A46936849
:10331000064903F00C03082BF9D14B6C43F48043AE
:103320004B644B6E43F480434B6670470038024059
:10333000007000400854400780400030003C0240CC
:103340000094483800000000000000000000000069
:1033500010B5084C2046FEF7F3FB0749074A084B17
:10336000A162E262236312206021BDE81040FDF7F4
:10337000D7B800BFD435002000200140300B03082F
:10338000162C0200AFF30080AFF30080AFF3008093
:103390000378012B00D07047114B984210B50446BA
:1033A0000DD01048A26A436803F44003002143F49F
:1033B00080330124436051609160946010BD0A4ADB
:1033C000C06A06212346FFF78BFEE36A074A1B68A3
:1033D00007499960536C43F480735364E1E700BF7D
:1033E000D435002000230140913500080038024008
:1033F0004C200140AFF30080AFF30080AFF30080BA
:103400000378022B00D0704710B50446C06AFFF75E
:10341000AFFE0749A36A00228C425A609A6000D02E
:1034200010BD044A536C23F480735364F8E700BF63
:10343000D435002000380240AFF30080AFF30080A5
:103440000369016B1A782DE9F043C4682AB1012C95
:1034500094BF41F4807141F48471C56A5A882D6823
:103460008668EE6002FB04F203F118086A60DC680B
:10347000296098E800512E681969826AD3F814907F
:103480005F6A44F0806343F4807346F001000024D7
:1034900028601460C2F80C90C2F81080C2F82CC0EA
:1034A000C2F830E0576353604B0006D441F44071DA
:1034B00041F001019160BDE8F08321F0804323F0E9
:1034C000020343F4407341F4407143F0030341F0BD
:1034D000030193609160BDE8F08300BFAFF300800B
:1034E000C16A0A68136823F01F031360136813F09E
:1034F0000103FBD130B40D7A4C68826A3D21A940AA
:1035000001202160536030BC93609060704700BF21
:103510001A4B1A680021196093062CD510B5184C67
:10352000E36A1B685B6813B3236903B32046FFF7A4
:10353000D7FF23699B684BB10522227020460121E9
:1035400098472378052B04BF0223237000222261B1
:103550000B49202383F31188606928B14FF0FF33B2
:1035600003624A61FDF72CF9002383F31188BDE85B
:103570001040FCF765BFFCF763BF00BF00200140AF
:10358000D4350020AFF30080AFF30080AFF30080AC
:1035900011F00C0F70B5044619D10369B3B18D0653
:1035A00012D51A78002A41D05D687DB1C268012A1F
:1035B00037D95B888168520803FB02F301EB4301B2
:1035C0002B46BDE870401847CA0621D470BDFFF7EE
:1035D00087FF23699B684BB105222270204600219A
:1035E00098472378052B04BF022323700022226111
:1035F000202383F31188636933B14FF0FF31626197
:1036000018461962FDF7DCF8002383F3118870BDBA
:103610005B68002BDAD0C26881685208BDE8704050
:1036200018472B468168BDE870401847FFF758FFE0
:1036300023695B68ABB1042222702046A168E2686E
:1036400098472378042B0CD0202383F311886369D7
:10365000002BD9D00022626118461A62FDF7B0F83B
:10366000D2E70222002322702361EDE7AFF300804E
:10367000024A536843F4000353607047002301403B
:10368000024A536823F4000353607047002301404B
:10369000024A536843F4800353607047002301409B
:1036A000024A536823F480035360704700230140AB
:1036B00001F001038A0748BF43F002034A0748BFED
:1036C00043F008030A0748BF43F00403CA0648BF93
:1036D00043F010038A0648BF43F020038A050268BE
:1036E00048BF43F04003134303607047AFF30080CB
:1036F00038B5202383F31188074C084BE06B002575
:10370000DD6310B1FDF75CF8E563002383F31188F6
:10371000BDE83840FCF794BE08360020002C01407C
:1037200010B5044C2046FEF773FD0022024BE26305
:10373000636410BD08360020780B0308AFF30080E7
:103740000379114A012B10B5026406D00F4B0022F9
:103750001A605A60DA625A6210BD002204461346AB
:103760000921406CFFF7BCFC636C09491B68072208
:10377000996031205A619021FCF7D2FE054A536CC2
:1037800043F400635364E1E72054A308002C014094
:10379000802C014000380240AFF30080AFF300807E
:1037A0000379012B13D00A4B10B5002204461A608E
:1037B00031205A60DA625A62FCF7DAFE606CFFF779
:1037C000D7FC044A536C23F40063536410BD704764
:1037D000002C014000380240AFF30080AFF30080BE
:1037E000064B78225A601A6842F003021A605A683F
:1037F00042F480725A600A20FDF7B2B9002C0140F1
:10380000024A536823F0FF0353607047002C0140C5
:10381000024B00225A601A60704700BF002C014022
:10382000084A5368012923F4C05307D003D302295F
:1038300003D143F4805353607047704743F40063EF
:1038400053607047002C0140AFF30080AFF300805D
:10385000064B41F480619A601846D960436B034A75
:103860001B06FBD580239363704700BF002C0140EB
:1038700038B50C4C41F48861A2602546E160696B63
:10388000084A11F04504FAD0946311F0040403D1FE
:1038900052691A60204638BD3430FFF709FF012015
:1038A00038BD00BF002C0140AFF30080AFF30080B3
:1038B00038B50C4C41F48861A2602546E160696B23
:1038C000084A11F04504FAD0946311F0050403D1BD
:1038D00052691A60204638BD3430FFF7E9FE0120F6
:1038E00038BD00BF002C0140AFF30080AFF3008073
:1038F0002DE9F041202304460D46164683F3118836
:10390000194BDB6B4BBB184B5B6B13F480731FD0F5
:10391000616C0B681A6812F00102FBD191F808E0A3
:103920004F68114911483D2303FA0EF33B60886349
:103930001346CA6283F31188012D06D92046334607
:103940000C21BDE8F041FFF7B3BF1046BDE8F081A0
:1039500083F311880120BDE8F081054B9B69C363A7
:103960000220FCF745FFCEE7002C0140FF07C00016
:10397000B8350020AFF30080AFF30080AFF30080D4
:103980002DE9F0410646406C184F057AD7F834C04F
:1039900090E808403D24AC40CEF800401C6824F07C
:1039A0001F040F4615461C601A6812F00104FBD173
:1039B000017A0E4BDFF838803D228A40CEF8002095
:1039C0006146C3F8388006F13400DC63DC62FFF73F
:1039D0006FFE012F07D9304622462B460C21BDE849
:1039E000F041FFF765BFBDE8F08100BF002C01404A
:1039F000FF07C000AFF30080AFF30080AFF300809B
:103A000038B50F4C41F49861A2602546E160696BBE
:103A10000B4A11F04504FAD0946311F03F0409D128
:103A2000116A1960D1695960916999605269DA60C7
:103A3000204638BD3430FFF73BFE012038BD00BFC3
:103A4000002C0140AFF30080AFF30080AFF30080A3
:103A50002DE9F041264C274D656282B00F46904615
:103A60001E460546FEF78CFB10B102B0BDE8F081A2
:103A70006B6C2A6C1B68DFF884C0C3F80C80710281
:103A8000880858601A601A689B2042F0010240F2D0
:103A90002A3E1A60C4F838C0C4F83CE0A162E06273
:103AA0002B6BDB0658BF7F0201AC012E3A46234642
:103AB000284617D91221FFF7FBFE50B9019A0E4B89
:103AC000134033B9284631462246FFF711FF00283C
:103AD000CBD0284631462246FFF752FF012002B0E4
:103AE000BDE8F0811121FFF7E3FE0028E6D0F0E702
:103AF000002C0140C027090008E0FFFDFF07C000BF
:103B00002DE9F041274C284D656282B00F46904662
:103B10001E460546FEF734FB10B102B0BDE8F08149
:103B20006B6C2A6C1B68DFF888E0C3F80C807102AC
:103B3000880842F0400258601A601A6840F21A3051
:103B400042F001021A60C4F838E0E063A1622B6B16
:103B5000DB0658BF7F0201AC012E3A4623462846B9
:103B60001AD91921FFF7A4FE68B9019A0F4B134027
:103B70004BB90C4B9922DA62284631462246FFF7B0
:103B8000B7FE0028C9D0284631462246FFF7F8FE86
:103B9000012002B0BDE8F0811821FFF789FE00285E
:103BA000E3D0F0E7002C0140808D5B0008E0FFFDD2
:103BB000FF07C000AFF30080AFF30080AFF30080D9
:103BC000FFF746BFAFF30080AFF30080AFF3008094
:103BD000FFF796BFAFF30080AFF30080AFF3008034
:103BE00000207047000000000000000000000000FE
:103BF0002DE9F04FDFF8B481DFF8B4C1D8F830A078
:103C0000DFF8B0E1634F644E644D654C6549664A28
:103C1000DFF8A4B140F2FF194AEA090AC8F830A057
:103C2000D8F850A04AEA0909C8F850904368CCF87F
:103C300004308368CCF80830C368CCF80C300369D2
:103C4000CCF814304369CCF820308369CCF82430A8
:103C50000368CCF80030036ACEF80430436ACEF82B
:103C60000830836ACEF80C30C36ACEF81430036B88
:103C7000CEF82030436BCEF82430C369CEF8003044
:103C8000C36B7B60036CBB60436CFB60836C7B61CC
:103C9000C36C3B62036D7B62836B3B60876D7760B7
:103CA000C76DB760076EF760476E7761876E3762E2
:103CB000C76E7762476D3760466F6E60866FAE6025
:103CC000C66FEE60D0F880606E61D0F884602E62BE
:103CD000D0F888606E62066F2E60D0F890506560F4
:103CE000D0F89450A560D0F89850E560D0F89C507A
:103CF0006561D0F8A0502562D0F8A4506562D0F874
:103D00008C502560D0F8AC404C60D0F8B0408C604E
:103D1000D0F8B440CC60D0F8B8404C61D0F8BC408A
:103D20000C62D0F8C0404C62D0F8A8400C60D0F8CB
:103D3000C8105160D0F8CC109160D0F8D010D1608C
:103D4000D0F8D4105161D0F8D8101162D0F8DC103E
:103D50005162D0F8C4101160D0F8E420CBF80420F0
:103D6000D0F8E820CBF80820D0F8EC20CBF80C20D5
:103D7000D0F8F020CBF81420D0F8F420CBF8202095
:103D8000D0F8F820CBF82420D0F8E020CBF80020A1
:103D9000BDE8F08F00080240000C02400010024015
:103DA0000014024000180240001C0240003802408B
:103DB000000002400004024000200240AFF30080F7
:103DC0002DE9F04F4FF00F0C02F0030EC2F3800705
:103DD000C2F3C106C2F341150024C2F3C3124FF06F
:103DE00001094FF003082BE0D0F820B02BEA0303C1
:103DF00043EA0A030362436809FA04FA23EA0A035E
:103E00003B4343604FEA440A836808FA0AFA6FEAC0
:103E10000A0A0AEA030333438360C3680AEA030316
:103E20002B43C36003680AEA030343EA0E030360FB
:103E3000490819D07F00B600AD004FEA8E0E01345C
:103E400004F007039B0011F0010F02FA03FA0CFAC9
:103E500003F3EDD0072CC7D9D0F824B02BEA030325
:103E600043EA0A034362C6E7BDE8F08F00000000A2
:103E700030B4436B046B4FF4004122681980002179
:103E8000198099809982136823F01F0313601368C7
:103E9000D907FCD4C16A257A60680A683D23AB4023
:103EA0000360136823F01F0313601368DB07FCD45F
:103EB000087A4A683D238340136030BC704700BFD6
:103EC00038B5446B444A238BA58AADB245EA034317
:103ED00023F07F43934264D01ED8073A934254D0D4
:103EE0000132934213D1A388C26A23F400731B04E6
:103EF00012681B0CA380136843F001031360A388AE
:103F00009BB243F48053A3805368012B5CD915F016
:103F10000A0F18BF238B38BD304A934224D0023297
:103F20009342F4D1C36A1B685A68002A42D1A3881D
:103F300023F400731B041B0CA38023889BB243F45F
:103F400000732380202383F31188C36923B1C261E6
:103F500018461A62FCF734FC002383F3118815F02D
:103F60000A0F18BF238B38BDA388026B23F400739C
:103F70001B0412681B0CA380136843F00103136039
:103F800015F00A0F18BF238B38BD038C1A0A0BD00B
:103F900003F0010343F0F00302F00602134323820F
:103FA000B5E7038CC3F34703238215F00A0F18BF4C
:103FB000238B38BD2388028C9BB243F4A06342F06C
:103FC00001020284238038BD238823F480631B040C
:103FD0001B0C23809BE700BF080003008200070042
:103FE00070B5056B2A68136823F01F03136013680C
:103FF000DE07FCD42E7AC46A6D6822683D23B34084
:104000002B60136823F01F031360136813F0010380
:10401000FBD1257A64683D22AA40CD05226048BFC5
:1040200001238C05836044BF43F0020383604A058B
:104030000ED5446BA28822F400721204120CA280E6
:10404000228892B243F0040342F40072228083601B
:104050000E0544BF43F0080383604D0444BF43F0A2
:1040600020038360CC0415D543F01003090483605A
:1040700015D4202383F31188C3693BB100216FF06D
:104080000102C16118461A62FCF79AFB002383F310
:10409000118870BD0A0402D4002BEAD170BD43F030
:1040A00040038360202383F31188C369002BE5D18B
:1040B000ECE700BFAFF30080AFF30080AFF3008008
:1040C00038B5202383F31188C56955B10446FFF73D
:1040D000CFFE00224FF0FF33E26128462B62FCF74F
:1040E0006FFB002383F3118838BD00BFAFF300805E
:1040F00011F00C0F38B50546446B13D1296B0A68D3
:10410000136823F01F0313601368DB07FCD4087ADD
:104110004A683D2383401360A3889BB243F4007335
:10412000A38038BDFCF754F9E8E700BFAFF3008087
:1041300011F00C0F70B50546446B2DD1E86A01688B
:104140000B6823F01F030B600B6813F00102FBD117
:10415000067A41683D23B3400B60A38823F4805363
:104160001B041B0CA380238823F480631B041B0CFB
:10417000238023889BB243F400732380202383F39E
:104180001188EB6923B1EA6118461A62FCF718FB43
:10419000002383F3118870BDFCF71AF9CEE700BF46
:1041A00008B50348FFF78CFEBDE80840FCF748B9A6
:1041B00050360020AFF30080AFF30080AFF30080F3
:1041C0000848426B918A08B589B201F45F4383F4D1
:1041D0007F4383F0FF039382FFF702FFBDE80840AF
:1041E000FCF72EB950360020AFF30080AFF300800B
:1041F00008B50348FFF764FEBDE80840FCF720B9A6
:1042000088360020AFF30080AFF30080AFF300806A
:104210000848426B918A08B589B201F45F4383F480
:104220007F4383F0FF039382FFF7DAFEBDE8084087
:10423000FCF706B988360020AFF30080AFF30080AA
:10424000F8B50D4E0D4D0E4C3046FDF739FD0D4BBA
:104250007363002704F10C032846F4623363F761AB
:10426000FDF72EFDA4F12403074AEF6118346A63B9
:10427000EB622C63F8BD00BF50360020883600206A
:104280000C0B03080054004000580040AFF30080BE
:104290002DE9F8430378456B40F256428262012BC8
:1042A00040F216420446426244D02B46E16A226B39
:1042B0006068D1F80090D2F800804468077A664EB2
:1042C00005F110024FF4004C00214FF4106EC9F8B4
:1042D0000820C8F80820A5F800C02980A5F804E047
:1042E0009A8822F03F021204120C9A809A8892B2A5
:1042F00042F02A02B4429A8053DD584A944207DCC5
:10430000022F6DD0032F5ED048F6FF710D221A8464
:10431000998301781A88022992B24ED0032949D094
:1043200001293AD01A802B889BB243F001032B80DD
:10433000BDE8F8834A4B984260D04A4B9842B4D1CA
:10434000494EC06A336A494A43F480030027336206
:10435000052123463762FEF7C3FE454A206B05213F
:104360002346FEF7BDFE336C43F480033364212003
:104370005021FCF7D5F850212220FCF7D1F8616AD2
:10438000A26A636B41F0606142F0606241F44031C7
:1043900042F440326162A26288E722F00A0292B2DD
:1043A000C0E72B266100334A1E8492FBF1F1C1F372
:1043B0000B01ADE742F00A02B4E722F0080292B224
:1043C00042F00202AEE704EB840101EB8101294ACD
:1043D00092FBF1F16FEA81416FEA914189B295E771
:1043E00002F11E7204EB440102F5313292FBF1F14D
:1043F0006FEA41416FEA514189B287E71A4EC06ABC
:10440000336A1A4A43F40013002733620521234616
:104410003762FEF765FE164A206B05212346FEF73C
:104420005FFE336C43F4001333641F205021FCF70C
:1044300077F850212020FCF773F8616AA26A636B59
:1044400041F0007142F0007241F4403142F44032D8
:104450006162A2622AE700BFA0860100801A0600FE
:1044600050360020883600200038024031410008D4
:10447000F140000880DE8002AFF30080AFF30080DF
:104480000378012B10B504460DD0FFF7F1FC206B2B
:10449000FEF76EFEE06AFEF76BFE0F4B9C420FD0FC
:1044A0000E4B9C4200D010BD2120FCF761F8222069
:1044B000FCF75EF80A4A136C23F480031364F2E7F6
:1044C0001F20FCF755F82020FCF752F8044A136C23
:1044D00023F40013136410BD5036002088360020EA
:1044E00000380240AFF30080AFF30080AFF30080EC
:1044F0002DE9F04387B006460E9D446B681C0F46BD
:104500009146984605D001A829462F4A3346FCF724
:10451000DFF8002383F31188F16A726A0968B360D7
:104520007F0047F0010737840A60C1F80C90C1F89A
:10453000048002E0002383F31188238B13F0020F21
:104540004FF0200302D1228892050BD583F3118806
:10455000691CEFD0049B002BECD14FF0FF3007B06B
:10456000BDE8F08383F3118801351CD0049B002B38
:10457000F3D0A388154D9BB243F40073A380238826
:10458000AA699BB243F4A06323800220F261FCF786
:104590002FF9049B13B101A8FCF7BAF8AB69186AAC
:1045A00007B0BDE8F083A388084D9BB243F40073C5
:1045B000A3802388AA699BB243F4A06323800220CE
:1045C000F261FCF715F9E9E7C1400008B8350020B1
:1045D0002DE9F04387B08046109D446B681C8946E6
:1045E00017461E4605D001A82946364A4346FCF721
:1045F0006FF8002383F31188D8F83010D8F82C20F6
:1046000009681268C8F808304FEA4909D8F8283014
:10461000D8F82400A8F820900B600E9BCF604E6065
:104620001060D3600F9B536002E0002383F3118876
:10463000238B13F0020F4FF0200302D12288920542
:104640000BD583F31188691CEFD0049B002BECD1B0
:104650004FF0FF3007B0BDE8F08383F311880135D8
:104660001DD0049B002BF3D0A388174D9BB243F4BD
:104670000073A3802388AA699BB243F480732380CC
:104680000220C8F81C20FCF7B3F8049B13B101A862
:10469000FCF73EF8AB69186A07B0BDE8F083A38861
:1046A000094D9BB243F40073A3802388AA699BB28F
:1046B00043F4807323800220C8F81C20FCF798F88C
:1046C000E8E700BFC1400008B83500200000000046
:1046D0002DE9F04FAC4BAD499A69066D916185B0FB
:1046E0008346202383F311884FF000099BF80030A4
:1046F000012B05D0DBF85C306BB97369DB060AD49B
:10470000B369A14A43F010039269B3610220CBF868
:104710006420FCF76DF8002383F311889A467369CF
:1047200013F0100223D0DBF850100B6A03F4F012E0
:10473000B2F5802F30D0B2F5402FF0D103F00F0248
:104740000BEB8202C3F30A13D26803339B08146A8B
:10475000E5D001F580510222086812B144F8040B3B
:10476000013A013BF8D1736913F01002DBD101214A
:10477000DBF85C3001FA0AF11942029177D10AF1B3
:10478000010ADBF854309B685FFA8AFA9A45C6D969
:10479000202383F31188A9E703F00F070BEB8707AA
:1047A000C3F30A15FB6898690378EBB9436882681C
:1047B000D0F80CE003339A1AEB1C9B084FEA9202E4
:1047C00009D001F58051F4460C6812B14CF8044B45
:1047D000013A013BF8D10EEB0504C460FB689A690D
:1047E00093682B4493609AE7C4683DB301F5805108
:1047F00028460328626907D923699A4204D3E368EB
:10480000636103286269F7D8D1F800C04FF0000E49
:1048100002F101082CFA0EF3C4F814801370236916
:1048200062699A4224BFE3686361013806D0BEF131
:10483000180FDED00EF1080E6269E9E7202383F33A
:104840001188A36820682B44A042A36009D00368A4
:1048500023605C60FBF7B4FFC0F820902068A042A2
:10486000F5D1FCF775F8002383F31188B6E7202310
:1048700083F31188DBF85C30B068029920F0010006
:1048800023EA0101B0601346CBF85C1083F3118872
:104890000BEB8A031F46DC68626991685368994292
:1048A00080F0B880DBF85000258A4FEA4A14019462
:1048B00004195B1AD4F818199D4228BF1D468BB203
:1048C000B5EB830F0AF1010A2DD803963E46137803
:1048D000002B3BD1EB1C00EB0A3ED0689B0818BFB5
:1048E000014605D051F8044BCEF80040013BF9D108
:1048F0002844D060F4686269936851682B449942F7
:10490000936040F28480019DDBF85000248A4719AF
:10491000CD1AD7F81839A54228BF25469BB2B5EB6A
:10492000830FD4D9039E0022202383F31188B36818
:1049300043F00103B3602AB9D6F83438029A1A4317
:10494000C6F83428002383F311881AE700EB0A3EE7
:10495000D4680DB3D4F810C02A46930835D1A369A2
:10496000002108465F1CA7611B78674503FA01F325
:1049700040EA030024BFE368A361013A08D0182984
:1049800006D00831A369EDE7B8350020C05F0B08F9
:10499000CEF80000002AE0D1202383F31188A36819
:1049A00020682B44A042A36009D0036823605C60A8
:1049B000FBF706FFC0F820902068A042F5D1FBF776
:1049C000C7FF002383F3118894E7A069BCEB0001C3
:1049D00048BF033189108B4228BF0B464FEA83083A
:1049E000C8EB02023BB1014651F8047BCEF80070DF
:1049F000013BF9D140448445A06104D8E368A36138
:104A0000002AAAD1C8E7002AC6D00346A8E7039E19
:104A1000012289E70AF1010AFAE700BFAFF300803B
:104A2000F0B50024D1F808E025464FF0804C4FF057
:104A3000FF3714E0C1F80059C218C2F81059C2F883
:104A40000879D1F8006B002E17DBC1F8005B034436
:104A50000134A645C3F8105BC3F8087B14D3630187
:104A6000C118D1F80029002AE4DAC1F800C90E46BD
:104A7000D6F808299207FBD5DEE7C1F800CBD2F8BB
:104A8000081BC906FBD5E2E74FF00113C0F81C383C
:104A9000F0BD00BFAFF30080AFF30080AFF3008044
:104AA00070B50E4C0E4E2046FDF702FE04F1A8052F
:104AB0004FF0A0432365294604F168000023FF223C
:104AC000666523666366FBF783FF284604F50E716F
:104AD0005522BDE87040FBF77BBF00BFC036002009
:104AE000900B0308AFF30080AFF30080AFF30080BA
:104AF00070B50378066D012B82B001D002B070BD95
:104B00002E4B9842054649D02B6E0022EA65002BB9
:104B100038D02B4BF3602B492C6DC6F800184FF49E
:104B200034130022C6F8002E2020B363FCF7E8FF00
:104B3000012323612369DB07FCD40C20FCF7E0FF91
:104B40002369002BFCDA0024B460286D696DFFF73F
:104B500067FF6B68C6F81048DB68C6F81448C6F8EB
:104B60001C485BB143F20803B3614FF0FF3373613C
:104B7000B36843F00103B36002B070BD4FF440531B
:104B8000B361F2E7009505F168004FF4E871022285
:104B90000D4BFBF725FF68662866BAE70B4B5A6B8F
:104BA00042F080025A635A69002142F080025A6141
:104BB00043205961E021FBF7B3FCA5E7C036002094
:104BC0004014004003002002D14600080038024093
:104BD00038B50378056D012B0DD004462846616D6C
:104BE000FFF71EFF094A00239442E365C5F81C380D
:104BF000AB60AB6300D038BD4320FBF7B9FC044A7F
:104C0000536B23F080035363F5E700BFC0360020E9
:104C100000380240AFF30080AFF30080AFF30080B4
:104C2000F8B5056D202307462B612B6913F020048E
:104C3000FBD10C20FCF764FFD7F854E0DEF80860E5
:104C400023464FF00060FF2105EB43120133B342CE
:104C5000C2F80009C2F8000BC2F80819C2F8081B14
:104C6000F2D9DEF800304FF0FF324FF00111C5F8F5
:104C700018283A6DC5F81C18BB65DEF800306B6269
:104C800010231361136913F01004FBD10C20FCF7FF
:104C900037FFD5F80038114A114823F4FE63C5F8F0
:104CA0000038AB6943F4402343F010030921AB61A2
:104CB000C5F81018C5F81418F860C5F8104BC5F8F9
:104CC000002BC5F81049C5F80029BB6D03F110028F
:104CD00043F48013BA65AB62F8BD00BF408000109A
:104CE0009C0B0308AFF30080AFF30080AFF30080AC
:104CF000026D90F84E10D2F8003823F4FE6343EAB8
:104D00000113C2F800387047AFF30080AFF30080A2
:104D10002DE9F0410FFA81F800EB88070D46FB689A
:104D2000046D1A6802F00302022A5CD0032A5CD0E8
:104D30004A4E4B49012A18BF0E466A01D96804EB56
:104D4000020E4FF0000CCEF810CB002971D0B3F852
:104D500012E005F15801490146EA0E0E44F801E05F
:104D600005F1100CD4F81C184FF0010E0EFA0CFED1
:104D70004EEA0101C4F81C18224499684FF0000E55
:104D8000C2F810E999B3998B1A8A01294FEA920364
:104D900088BF4B4305F13F0E816D04EB8E0EAA01D7
:104DA00003EB010C42F0200241EA0343C0F858C073
:104DB000CEF80430226123699A06FCD40C20FCF75B
:104DC0009FFEFB681A8A05F148035B0142EA85529F
:104DD0003243E2500123D4F81C28AB401343C4F8FB
:104DE0001C38BDE8F0811F4EA7E71F4EA5E705F16F
:104DF0003F0204EB8202AB011C49516043F02003E7
:104E0000236123699B06FCD404EB48180C20FCF7B3
:104E100077FED8F8002922F40042C8F80029D4F817
:104E20001C280123AB4022EA0303C4F81C38BDE868
:104E3000F08104EB481105F1100CD1F800EB2EF4D1
:104E4000004EC1F800EBD4F81C184FF0010E0EFA1A
:104E50000CFE21EA0E01C4F81C188DE70080041036
:104E6000008000100080081000800C100004000278
:104E7000416D03460A68006D9A65D1E5AFF3008085
:104E80005831036D49015B5813F4004004D013F40A
:104E9000001F14BF01200220704700BFAFF3008045
:104EA0004831036D49015B5813F4004004D013F4FA
:104EB000001F14BF01200220704700BFAFF3008025
:104EC00000EB8101CB681B6A19685B685360116055
:104ED000704700BFAFF30080AFF30080AFF30080F6
:104EE00000EB810330B4DD68AC696368236131B9DC
:104EF000402B04D940236360094A3F2402E05C1E32
:104F000043F0C042006D6D8A00EB41116319B3FBA1
:104F1000F5F342EAC343C1F8103B30BC704700BF11
:104F200040000060AFF30080AFF30080AFF300807B
:104F30002DE9F041264E376D07EB40130546D3F8B7
:104F4000084BC3F8084B200703D5D7F814381907C6
:104F50001DD4E20719D5D7F81438DB0715D506EBB1
:104F600085061B4CF1688B6958681A69904216D304
:104F70006289CE680123AB4022EA0303638129469C
:104F800020463346BDE8F0411847BDE8F08106EB06
:104F900085033046DB6829465B689847D9E7121AD3
:104FA00000265A609E6020462946FFF799FF20237D
:104FB00083F31188236D03EB45153346D5F8002B99
:104FC00042F08062C5F8002B83F31188BDE8F081C0
:104FD000C0360020AFF30080AFF30080AFF3008055
:104FE00000EB810310B4DC68626953681361ABB1F4
:104FF00071B15A1E006D248A00EB41112244B2FBAC
:10500000F4F243EAC243C1F810395DF8044B70472B
:10501000402BEED9402353603F22EBE7036D5DF850
:10502000044B03EB41114FF40023C1F810397047D2
:105030002DE9F041314D2E6D06EB40130746D3F8B4
:105040000849C3F80849E10703D5D6F81038DA074C
:105050001FD423061BD50122D6F83438BA401A4291
:1050600015D0202383F31188E96DD6F83438686EA3
:10507000224C114323EA0202E965C6F8342818B12C
:10508000FBF79EFB00236366002383F31188BDE8D2
:10509000F08105EB8003D9684B6958681A69904222
:1050A00020D2121A4FF000085A60C3F80880284630
:1050B0003946FFF795FF202383F311882A6D02EB11
:1050C00047100121D0F8003943F00443C0F80039FB
:1050D000D2F83438B9401943C2F83418434683F340
:1050E0001188B6E72A89D1F808C00123BB4022EA1B
:1050F00003032B8128463946E047AAE7C036002043
:1051000070B53B4D2E6D7369B4691C40E004746149
:105110003ED4A10448BFD6F80838220704D56B68EE
:10512000DB680BB132489847E30610D5202383F3A0
:105130001188B369686E2E4D23F01003B36118B166
:10514000FBF73EFB00236B66002383F311886003AB
:10515000D6F8185807D5E90736D4AA0739D46B070B
:105160003CD42E073FD4240307D5E80321D4A90358
:1051700024D46A0317D42B0303D4BDE87040FBF793
:105180005FB90320FFF7D4FEBDE87040FBF758B9C4
:105190002846FDF78DFB6B681B68002BB9D02846AD
:1051A00000219847B5E70220FFF7C2FE2B03E4D5A4
:1051B000E7E70020FFF7BCFEA903DAD50120FFF7DF
:1051C000B7FE6A03D7D5EEE70020FFF731FFAA0745
:1051D000C5D50120FFF72CFF6B07C2D50220FFF7D2
:1051E00027FF2E07BFD50320FFF722FFBBE700BF35
:1051F000C0360020AFF30080AFF30080AFF3008033
:10520000036D03EB4111D1F8003B43F08063C1F81B
:10521000003B7047AFF30080AFF30080AFF3008036
:10522000036D10B403EB41140122D4F8000940F0DF
:105230000440C4F80009D3F834085DF8044B8A40F0
:105240000243C3F834287047AFF30080AFF3008007
:10525000036D03EB4111D1F8003B43F40013C1F897
:10526000003B7047AFF30080AFF30080AFF30080E6
:10527000036D03EB4111D1F8003943F40013C1F879
:1052800000397047AFF30080AFF30080AFF30080C8
:10529000036D03EB4111D1F8003B23F40013C1F877
:1052A000003B7047AFF30080AFF30080AFF30080A6
:1052B000036D03EB4111D1F8003923F40013C1F859
:1052C00000397047000000000000000000000000EE
:1052D00011F00C0F00D17047FBF77AB8AFF30080E4
:1052E00011F00C0F38B5044637D1606A02681368B4
:1052F00023F01F0313601368D907FCD4057A216AD1
:1053000040680A683D23AB400360136823F01F0325
:1053100013601368DB07FCD46368087A1A6849686D
:105320003D2383400B60AAB104232370204690479D
:105330002378042B0ED0202383F31188A3682BB18C
:105340000022A26018461A62FBF73AFA002383F3A0
:10535000118838BD02232370EDE7FBF739F8C4E765
:1053600070B5114E114B124C124D4FF6FF72304674
:105370001A80FDF79DF81049104A114BF161204643
:1053800005F10C0135627162B262F362FDF790F8CB
:105390000C490D4A0D4BE161A5F17801243D2162D4
:1053A0006562A262E36270BD283900208821002076
:1053B000F8380020480B03080030014016000106B1
:1053C00046000106003C00401600030046000300B2
:1053D0000378012B10B504461ED0C3696268A06A29
:1053E0005289E16A20F4F04021F4F04112F4006F98
:1053F0001CBF40F4205041F42051A062E16242F40D
:1054000041720020072118801A8099801A8892B270
:1054100042F040021A8010BD194B98420CD0194B33
:1054200098421BD0216A626AE3690868116803F137
:105430000C0282608A60D1E7134A006A0A2123467F
:10544000FDF74EFE114A606A23460A21FDF748FE29
:105450000F4A536C43F480535364E3E70A4A006AEB
:1054600003212346FDF73CFE084A606A23460321D8
:10547000FDF736FE064A136C43F400431364D1E78C
:1054800028390020F8380020E1520008D1520008E5
:1054900000380240AFF30080AFF30080AFF300802C
:1054A0000378022B00D07047C36910B50022044670
:1054B000006A1A809A80FDF75BFE606AFDF758FE6D
:1054C000094B9C4209D0094B9C4200D010BD084AB0
:1054D000136C23F400431364F8E7054A536C23F478
:1054E0008053536410BD00BF28390020F8380020D5
:1054F00000380240AFF30080AFF30080AFF30080CC
:10550000436819895A6801238B409BB253837047C3
:10551000436819895A6801238B409BB213837047F3
:10552000026A436A12681B6870B40A4C856AC06AD2
:10553000A61CD66051601560DC6059601860116867
:1055400041F0010111601A6842F001021A6070BC5A
:10555000704700BF88210020AFF30080AFF30080C8
:10556000F0B4046A476A866AC56A24683868E360EA
:1055700046F4806645F4806561602660C2604160E3
:105580000560236843F001032360036843F00103CF
:105590000360F0BC704700BFAFF30080AFF3008042
:1055A00070B4436A046AC56A24681B68806A094E3D
:1055B000E66045F4806561602060DA6059601D60D6
:1055C000226842F0010222601A6842F001021A6069
:1055D00070BC70478A210020AFF30080AFF30080D9
:1055E00070B4436A046A856A24681B68C06A094EFD
:1055F000E26045F4806561602560DE605960186096
:10560000226842F0010222601A6842F001021A6028
:1056100070BC704788210020AFF30080AFF300809A
:10562000C26991811389DB07FCD5908980B27047EC
:10563000026970B51469D368DBB21C40E343A60766
:10564000054613611DD4600716D421070FD4E20666
:1056500008D4E30700D470BD6B6828469B68BDE89A
:10566000704018476B6828469B6A9847F1E76B685B
:1056700028461B6A9847EAE76B6828469B69984763
:10568000E3E743681B699847DDE700BFAFF300809D
:1056900008B50648064A43686FF001019B6811612E
:1056A0009847BDE80840FAF7CBBE00BF9439002008
:1056B00000000140AFF30080AFF30080AFF3008043
:1056C000134B10B51A69DC681440A4B2E2B2D2439D
:1056D000A0071A6117D4610710D4220709D4E30682
:1056E00003D50C4843689B6A9847BDE81040FAF719
:1056F000A7BE084843681B6A9847F0E70548436817
:105700009B699847E9E7034843681B699847E2E7C4
:105710000000014094390020AFF30080AFF3008017
:1057200008B50348FFF784FFBDE80840FAF788BED4
:10573000A8390020AFF30080AFF30080AFF3008002
:1057400008B50348FFF774FFBDE80840FAF778BED4
:1057500080390020AFF30080AFF30080AFF300800A
:1057600008B50348FFF764FFBDE80840FAF768BED4
:1057700058390020AFF30080AFF30080AFF3008012
:1057800008B50648064A43686FF001019B6811613D
:105790009847BDE80840FAF753BE00BF6C390020B7
:1057A00000040140AFF30080AFF30080AFF300804E
:1057B000134B10B51A69DC681440A4B2E2B2D243AC
:1057C000A0071A6117D4610710D4220709D4E30691
:1057D00003D50C4843689B6A9847BDE81040FAF728
:1057E0002FBE084843681B6A9847F0E7054843689E
:1057F0009B699847E9E7034843681B699847E2E7D4
:10580000000401406C390020AFF30080AFF300804A
:105810002DE9F041DFF864800F4F104E104D114C10
:105820004046FCF725FB104BC8F810303846FCF713
:105830001FFB0E4B3B613046FCF71AFB0C4B3361F0
:105840002846FCF715FB0B4B2B612046FCF710FBA1
:10585000094B2361BDE8F081A83900208039002080
:10586000583900206C39002000000140000400403D
:1058700000080040000C0040000401409439002062
:105880000378012B70B5044655D0036900221A60D5
:105890005A639A63DA631A645A6261682589CA682E
:1058A000E0680E68B0FBF6F06C1E013802F00F02E3
:1058B000CD6A80B2A4B2012A9862DC625D6003D036
:1058C000022A0CBF03220022486900F00F000128C1
:1058D0002ED002282AD0C86900F00F00012822D05B
:1058E00002281ED0486A00F00F00012803D00228C9
:1058F00003D142F4005242F48052086B89681A6264
:1059000020F0FF02002918BF42F001020125002407
:105910004FF4004085215D611C61DA6058641960B4
:1059200070BD42F4007242F48072DBE742F0200264
:1059300042F01002CFE7354B984227D0344B9842C3
:105940003AD0344B984249D0334B984252D0334BE3
:10595000984205D0236946F668029A61DA619CE7AD
:105960002F4B5A6C42F002025A645A6A002142F0EC
:1059700002025A622C2059627021FAF7D1FD2E20C2
:105980007021FAF7CDFD274BE360E3E7244B5A6C17
:1059900042F001025A645A6A002142F001025A623E
:1059A000192059627021FAF7BBFD1B207021FAF70C
:1059B000B7FD1C4BE360CDE7194B1A6C42F00202B5
:1059C0001A641A6A42F0020200211A621D2019624A
:1059D0007021FAF7A5FD144BE360BBE7104B1A6C7E
:1059E00042F004021A641A6A42F0040200211A62A8
:1059F0001E20ECE70A4B1A6C42F008021A641A6A7D
:105A000042F0080200211A623220E0E794390020B7
:105A1000A839002080390020583900206C39002036
:105A200000380240007A030A00BD0105AFF3008090
:105A300008B50378022B00D008BD24490369002271
:105A400088421A60DA601A615A6417D0204B984273
:105A500020D0204B984226D01F4B98422CD01F4B71
:105A60009842E9D12C20FAF783FD2E20FAF780FD29
:105A70001B4A536C23F002035364DDE71920FAF745
:105A800077FD1B20FAF774FD154A536C23F00103D0
:105A9000536408BD1D20FAF76BFD114A136C23F007
:105AA0000203136408BD1E20FAF762FD0C4A136C52
:105AB00023F00403136408BD3220FAF759FD084AA5
:105AC000136C23F00803136408BD00BF9439002051
:105AD000A839002080390020583900206C39002076
